{
  "contractName": "Investment",
  "abi": [
    {
      "inputs": [],
      "payable": false,
      "stateMutability": "nonpayable",
      "type": "constructor"
    },
    {
      "anonymous": false,
      "inputs": [
        {
          "indexed": true,
          "internalType": "address",
          "name": "from",
          "type": "address"
        },
        {
          "indexed": false,
          "internalType": "uint256",
          "name": "amount",
          "type": "uint256"
        }
      ],
      "name": "CheckBalance",
      "type": "event"
    },
    {
      "constant": true,
      "inputs": [],
      "name": "getBalanceAmount",
      "outputs": [
        {
          "internalType": "uint256",
          "name": "",
          "type": "uint256"
        }
      ],
      "payable": false,
      "stateMutability": "view",
      "type": "function"
    },
    {
      "constant": true,
      "inputs": [],
      "name": "getDepositAmount",
      "outputs": [
        {
          "internalType": "uint256",
          "name": "",
          "type": "uint256"
        }
      ],
      "payable": false,
      "stateMutability": "view",
      "type": "function"
    },
    {
      "constant": false,
      "inputs": [
        {
          "internalType": "uint256",
          "name": "amount",
          "type": "uint256"
        }
      ],
      "name": "addDepositAmount",
      "outputs": [],
      "payable": false,
      "stateMutability": "nonpayable",
      "type": "function"
    },
    {
      "constant": false,
      "inputs": [],
      "name": "withdrawBalance",
      "outputs": [],
      "payable": false,
      "stateMutability": "nonpayable",
      "type": "function"
    }
  ],
  "bytecode": "0x608060405234801561001057600080fd5b50662386f26fc100003373ffffffffffffffffffffffffffffffffffffffff16318161003857fe5b046000819055506000600181905550600c600281905550600380819055503373ffffffffffffffffffffffffffffffffffffffff167f298d723426e7f22fbb65ea5f84ec8606ff95165decb6598d73adcd29394b7bdb6000546040518082815260200191505060405180910390a2610145806100b56000396000f3fe608060405234801561001057600080fd5b506004361061004c5760003560e01c806358d3e10f146100515780635fd8c7101461006f5780637d96f69314610079578063a59c124514610097575b600080fd5b6100596100c5565b6040518082815260200191505060405180910390f35b6100776100ce565b005b6100816100df565b6040518082815260200191505060405180910390f35b6100c3600480360360208110156100ad57600080fd5b81019080803590602001909291905050506100e9565b005b60008054905090565b600080819055506000600181905550565b6000600154905090565b80600154016001819055506002546001541061010d57600354600154016000819055505b5056fea265627a7a72315820331f608cf130f5663de1388accc5547fcbb3d33c487ff8bc483ac2eb9ec78a2a64736f6c63430005100032",
  "source": "// SPDX-License-Identifier: GPL-3.0\npragma solidity 0.5.16;\n\ncontract Investment {\n    event CheckBalance(address indexed from, uint256 amount);\n    // amount returned to user\n    uint256 balanceAmount;\n    // amount deposited by user\n    uint256 depositAmount;\n    // minimum amount to be deposited by user\n    uint256 thresholdAmount;\n    // amount to be returned in addition to depositAmount to user\n    uint256 returnOnInvestment;\n\n    constructor() public {\n        balanceAmount = msg.sender.balance/(1e16);\n        depositAmount = 0;\n        thresholdAmount = 12;\n        returnOnInvestment = 3;\n\n        emit CheckBalance(msg.sender, balanceAmount );\n    }\n\n    // read operation\n    function getBalanceAmount() public view returns (uint256) {\n        return balanceAmount;\n    }\n\n    // read operation\n    function getDepositAmount() public view returns (uint256) {\n        return depositAmount;\n    }\n\n    // write operation\n    function addDepositAmount(uint256 amount) public {\n        depositAmount = depositAmount + amount;\n\n        if (depositAmount >= thresholdAmount) {\n            balanceAmount = depositAmount + returnOnInvestment;\n        }\n    }\n\n    // write function\n    function withdrawBalance() public {\n        balanceAmount = 0;\n        depositAmount = 0;\n    }\n}\n",
  "sourcePath": "/Users/norman/Development/blockchain/flutter/smart_contract/contracts/Investment.sol",
  "compiler": {
    "name": "solc",
    "version": "0.5.16+commit.9c3226ce.Emscripten.clang"
  },
  "schemaVersion": "3.4.3",
  "updatedAt": "2022-02-23T08:00:33.609Z",
  "networkType": "ethereum",
  "devdoc": {
    "methods": {}
  },
  "userdoc": {
    "methods": {}
  }
}